{
  "contractName": "Quiz",
  "abi": [
    {
      "constant": true,
      "inputs": [],
      "name": "questions",
      "outputs": [
        {
          "name": "",
          "type": "string"
        }
      ],
      "payable": false,
      "stateMutability": "view",
      "type": "function"
    },
    {
      "constant": true,
      "inputs": [],
      "name": "owner",
      "outputs": [
        {
          "name": "",
          "type": "address"
        }
      ],
      "payable": false,
      "stateMutability": "view",
      "type": "function"
    },
    {
      "constant": true,
      "inputs": [
        {
          "name": "",
          "type": "uint256"
        }
      ],
      "name": "playerHits",
      "outputs": [
        {
          "name": "",
          "type": "uint8"
        }
      ],
      "payable": false,
      "stateMutability": "view",
      "type": "function"
    },
    {
      "constant": true,
      "inputs": [
        {
          "name": "",
          "type": "uint256"
        }
      ],
      "name": "players",
      "outputs": [
        {
          "name": "",
          "type": "address"
        }
      ],
      "payable": false,
      "stateMutability": "view",
      "type": "function"
    },
    {
      "inputs": [],
      "payable": false,
      "stateMutability": "nonpayable",
      "type": "constructor"
    },
    {
      "anonymous": false,
      "inputs": [
        {
          "indexed": false,
          "name": "hitsCounter",
          "type": "uint8"
        }
      ],
      "name": "AnswerEvent",
      "type": "event"
    },
    {
      "constant": true,
      "inputs": [],
      "name": "getPlayerHits",
      "outputs": [
        {
          "name": "",
          "type": "uint8[]"
        }
      ],
      "payable": false,
      "stateMutability": "view",
      "type": "function"
    },
    {
      "constant": true,
      "inputs": [],
      "name": "getPlayers",
      "outputs": [
        {
          "name": "",
          "type": "address[]"
        }
      ],
      "payable": false,
      "stateMutability": "view",
      "type": "function"
    },
    {
      "constant": false,
      "inputs": [
        {
          "name": "playerAnswers",
          "type": "uint8[]"
        }
      ],
      "name": "answerQuestions",
      "outputs": [
        {
          "name": "",
          "type": "uint8"
        }
      ],
      "payable": false,
      "stateMutability": "nonpayable",
      "type": "function"
    }
  ],
  "bytecode": "0x6080604052608060405190810160405280600260ff168152602001600360ff168152602001600160ff168152602001600460ff168152506001906004610046929190610099565b5034801561005357600080fd5b50336000806101000a81548173ffffffffffffffffffffffffffffffffffffffff021916908373ffffffffffffffffffffffffffffffffffffffff160217905550610163565b826004601f016020900481019282156101225791602002820160005b838211156100f357835183826101000a81548160ff021916908360ff16021790555092602001926001016020816000010492830192600103026100b5565b80156101205782816101000a81549060ff02191690556001016020816000010492830192600103026100f3565b505b50905061012f9190610133565b5090565b61016091905b8082111561015c57600081816101000a81549060ff021916905550600101610139565b5090565b90565b61074d806101726000396000f300608060405260043610610083576000357c0100000000000000000000000000000000000000000000000000000000900463ffffffff16806329072a54146100885780633d65449b1461010857806377a49821146101745780638b5b9ccc146102045780638da5cb5b14610270578063987f73f4146102c7578063f71d96cb1461030e575b600080fd5b34801561009457600080fd5b506100ec6004803603810190808035906020019082018035906020019080806020026020016040519081016040528093929190818152602001838360200280828437820191505050505050919291929050505061037b565b604051808260ff1660ff16815260200191505060405180910390f35b34801561011457600080fd5b5061011d6104e1565b6040518080602001828103825283818151815260200191508051906020019060200280838360005b83811015610160578082015181840152602081019050610145565b505050509050019250505060405180910390f35b34801561018057600080fd5b5061018961055f565b6040518080602001828103825283818151815260200191508051906020019080838360005b838110156101c95780820151818401526020810190506101ae565b50505050905090810190601f1680156101f65780820380516001836020036101000a031916815260200191505b509250505060405180910390f35b34801561021057600080fd5b506102196105fd565b6040518080602001828103825283818151815260200191508051906020019060200280838360005b8381101561025c578082015181840152602081019050610241565b505050509050019250505060405180910390f35b34801561027c57600080fd5b5061028561068b565b604051808273ffffffffffffffffffffffffffffffffffffffff1673ffffffffffffffffffffffffffffffffffffffff16815260200191505060405180910390f35b3480156102d357600080fd5b506102f2600480360381019080803590602001909291905050506106b0565b604051808260ff1660ff16815260200191505060405180910390f35b34801561031a57600080fd5b50610339600480360381019080803590602001909291905050506106e3565b604051808273ffffffffffffffffffffffffffffffffffffffff1673ffffffffffffffffffffffffffffffffffffffff16815260200191505060405180910390f35b60008060008090505b83518110156103ec5760018160048110151561039c57fe5b602091828204019190069054906101000a900460ff1660ff1684828151811015156103c357fe5b9060200190602002015160ff1614156103df5781806001019250505b8080600101915050610384565b60023390806001815401808255809150509060018203906000526020600020016000909192909190916101000a81548173ffffffffffffffffffffffffffffffffffffffff021916908373ffffffffffffffffffffffffffffffffffffffff16021790555050600382908060018154018082558091505090600182039060005260206000209060209182820401919006909192909190916101000a81548160ff021916908360ff160217905550507fdfb8db539bcaee70bb08a72b6559d1526504fdfc16cb838d6d197b9a482f5aa682604051808260ff1660ff16815260200191505060405180910390a18192505050919050565b6060600380548060200260200160405190810160405280929190818152602001828054801561055557602002820191906000526020600020906000905b82829054906101000a900460ff1660ff168152602001906001019060208260000104928301926001038202915080841161051e5790505b5050505050905090565b60048054600181600116156101000203166002900480601f0160208091040260200160405190810160405280929190818152602001828054600181600116156101000203166002900480156105f55780601f106105ca576101008083540402835291602001916105f5565b820191906000526020600020905b8154815290600101906020018083116105d857829003601f168201915b505050505081565b6060600280548060200260200160405190810160405280929190818152602001828054801561068157602002820191906000526020600020905b8160009054906101000a900473ffffffffffffffffffffffffffffffffffffffff1673ffffffffffffffffffffffffffffffffffffffff1681526020019060010190808311610637575b5050505050905090565b6000809054906101000a900473ffffffffffffffffffffffffffffffffffffffff1681565b6003818154811015156106bf57fe5b9060005260206000209060209182820401919006915054906101000a900460ff1681565b6002818154811015156106f257fe5b906000526020600020016000915054906101000a900473ffffffffffffffffffffffffffffffffffffffff16815600a165627a7a723058200e1c76c7ebabfabb381dc0ebbf31a0753cdec94ecadd3d0d10c7851b4099f9430029",
  "source": "pragma solidity ^0.4.14;\n\ncontract Quiz {\n    address public owner;\n    uint8[4] rightAnswers = [2, 3, 1, 4];\n    address[] public players;\n    uint8[] public playerHits;\n    string public questions;\n\n    event AnswerEvent(uint8 hitsCounter);\n\n    constructor() public {\n        owner = msg.sender;\n    }\n\n    function getPlayerHits() public view returns (uint8[] memory) {\n        return playerHits;\n    }\n\n    function getPlayers() public view returns (address[] memory) {\n        return players;\n    }\n\n    function answerQuestions (uint8[] playerAnswers) public returns (uint8) {\n        uint8 hits;\n\n        for (uint i = 0; i < playerAnswers.length; i++) {\n            if (playerAnswers[i] == rightAnswers[i]) {\n                hits++;\n            }\n        }\n        players.push(msg.sender);\n        playerHits.push(hits);\n\n        emit AnswerEvent(hits);\n\n        return hits;\n    }\n}",
  "sourcePath": "/home/dulce/dev/rsk/appjs2dapp-workshop-rsk-dulce/contracts/Quiz.sol",
  "compiler": {
    "name": "solc",
    "version": "0.4.26+commit.4563c3fc.Emscripten.clang"
  },
  "schemaVersion": "3.2.0",
  "updatedAt": "2020-06-24T00:54:55.644Z",
  "networkType": "ethereum",
  "devdoc": {
    "methods": {}
  },
  "userdoc": {
    "methods": {}
  }
}