{
  "contractName": "Quiz",
  "abi": [
    {
      "constant": true,
      "inputs": [
        {
          "name": "",
          "type": "uint256"
        }
      ],
      "name": "playerHits",
      "outputs": [
        {
          "name": "",
          "type": "uint8"
        }
      ],
      "payable": false,
      "stateMutability": "view",
      "type": "function"
    },
    {
      "constant": true,
      "inputs": [
        {
          "name": "",
          "type": "uint256"
        }
      ],
      "name": "players",
      "outputs": [
        {
          "name": "",
          "type": "address"
        }
      ],
      "payable": false,
      "stateMutability": "view",
      "type": "function"
    },
    {
      "inputs": [],
      "payable": false,
      "stateMutability": "nonpayable",
      "type": "constructor"
    },
    {
      "constant": true,
      "inputs": [],
      "name": "getPlayerHits",
      "outputs": [
        {
          "name": "",
          "type": "uint8[]"
        }
      ],
      "payable": false,
      "stateMutability": "view",
      "type": "function"
    },
    {
      "constant": true,
      "inputs": [],
      "name": "getPlayers",
      "outputs": [
        {
          "name": "",
          "type": "address[]"
        }
      ],
      "payable": false,
      "stateMutability": "view",
      "type": "function"
    },
    {
      "constant": false,
      "inputs": [
        {
          "name": "playerAnswers",
          "type": "string"
        }
      ],
      "name": "answerQuestions",
      "outputs": [
        {
          "name": "",
          "type": "string"
        }
      ],
      "payable": false,
      "stateMutability": "nonpayable",
      "type": "function"
    }
  ],
  "bytecode": "0x60806040526080604051908101604052806040805190810160405280600181526020017f630000000000000000000000000000000000000000000000000000000000000081525081526020016040805190810160405280600181526020017f610000000000000000000000000000000000000000000000000000000000000081525081526020016040805190810160405280600181526020017f610000000000000000000000000000000000000000000000000000000000000081525081526020016040805190810160405280600181526020017f6200000000000000000000000000000000000000000000000000000000000000815250815250600090600461010a92919061011d565b5034801561011757600080fd5b50610296565b82805482825590600052602060002090810192821561016c579160200282015b8281111561016b57825182908051906020019061015b92919061017d565b509160200191906001019061013d565b5b50905061017991906101fd565b5090565b828054600181600116156101000203166002900490600052602060002090601f016020900481019282601f106101be57805160ff19168380011785556101ec565b828001600101855582156101ec579182015b828111156101eb5782518255916020019190600101906101d0565b5b5090506101f99190610229565b5090565b61022691905b808211156102225760008181610219919061024e565b50600101610203565b5090565b90565b61024b91905b8082111561024757600081600090555060010161022f565b5090565b90565b50805460018160011615610100020316600290046000825580601f106102745750610293565b601f0160209004906000526020600020908101906102929190610229565b5b50565b610490806102a56000396000f30060806040526004361061006d576000357c0100000000000000000000000000000000000000000000000000000000900463ffffffff1680631ef42a75146100725780633d65449b146101545780638b5b9ccc146101c0578063987f73f41461022c578063f71d96cb14610273575b600080fd5b34801561007e57600080fd5b506100d9600480360381019080803590602001908201803590602001908080601f01602080910402602001604051908101604052809392919081815260200183838082843782019150505050505091929192905050506102e0565b6040518080602001828103825283818151815260200191508051906020019080838360005b838110156101195780820151818401526020810190506100fe565b50505050905090810190601f1680156101465780820380516001836020036101000a031916815260200191505b509250505060405180910390f35b34801561016057600080fd5b506101696102e7565b6040518080602001828103825283818151815260200191508051906020019060200280838360005b838110156101ac578082015181840152602081019050610191565b505050509050019250505060405180910390f35b3480156101cc57600080fd5b506101d5610365565b6040518080602001828103825283818151815260200191508051906020019060200280838360005b838110156102185780820151818401526020810190506101fd565b505050509050019250505060405180910390f35b34801561023857600080fd5b50610257600480360381019080803590602001909291905050506103f3565b604051808260ff1660ff16815260200191505060405180910390f35b34801561027f57600080fd5b5061029e60048036038101908080359060200190929190505050610426565b604051808273ffffffffffffffffffffffffffffffffffffffff1673ffffffffffffffffffffffffffffffffffffffff16815260200191505060405180910390f35b6060919050565b6060600280548060200260200160405190810160405280929190818152602001828054801561035b57602002820191906000526020600020906000905b82829054906101000a900460ff1660ff16815260200190600101906020826000010492830192600103820291508084116103245790505b5050505050905090565b606060018054806020026020016040519081016040528092919081815260200182805480156103e957602002820191906000526020600020905b8160009054906101000a900473ffffffffffffffffffffffffffffffffffffffff1673ffffffffffffffffffffffffffffffffffffffff168152602001906001019080831161039f575b5050505050905090565b60028181548110151561040257fe5b9060005260206000209060209182820401919006915054906101000a900460ff1681565b60018181548110151561043557fe5b906000526020600020016000915054906101000a900473ffffffffffffffffffffffffffffffffffffffff16815600a165627a7a72305820d22858d3ba5777364372925b166efca9e8f38ab83eaa67a858b3bbfa9711693a0029",
  "source": "pragma solidity ^0.4.14;\n\ncontract Quiz {\n    string[] rightAnswers = [\"c\", \"a\", \"a\", \"b\"];\n    address[] public players;\n    uint8[] public playerHits;\n\n    constructor() public {\n    }\n\n    function getPlayerHits() public view returns (uint8[] memory) {\n        return playerHits;\n    }\n\n    function getPlayers() public view returns (address[] memory) {\n        return players;\n    }\n\n    function answerQuestions (string playerAnswers) public returns (string memory) {\n    }\n}",
  "sourcePath": "/home/dulce/dev/js/app2dapp/contracts/Quiz.sol",
  "compiler": {
    "name": "solc",
    "version": "0.4.26+commit.4563c3fc.Emscripten.clang"
  },
  "schemaVersion": "3.2.0",
  "updatedAt": "2020-06-16T01:56:36.701Z",
  "devdoc": {
    "methods": {}
  },
  "userdoc": {
    "methods": {}
  }
}