{
  "contractName": "Quiz",
  "abi": [
    {
      "constant": true,
      "inputs": [],
      "name": "questions",
      "outputs": [
        {
          "name": "",
          "type": "string"
        }
      ],
      "payable": false,
      "stateMutability": "view",
      "type": "function"
    },
    {
      "constant": true,
      "inputs": [],
      "name": "owner",
      "outputs": [
        {
          "name": "",
          "type": "address"
        }
      ],
      "payable": false,
      "stateMutability": "view",
      "type": "function"
    },
    {
      "constant": true,
      "inputs": [
        {
          "name": "",
          "type": "uint256"
        }
      ],
      "name": "playerHits",
      "outputs": [
        {
          "name": "",
          "type": "uint8"
        }
      ],
      "payable": false,
      "stateMutability": "view",
      "type": "function"
    },
    {
      "constant": true,
      "inputs": [
        {
          "name": "",
          "type": "uint256"
        }
      ],
      "name": "players",
      "outputs": [
        {
          "name": "",
          "type": "address"
        }
      ],
      "payable": false,
      "stateMutability": "view",
      "type": "function"
    },
    {
      "inputs": [],
      "payable": false,
      "stateMutability": "nonpayable",
      "type": "constructor"
    },
    {
      "constant": true,
      "inputs": [],
      "name": "getPlayerHits",
      "outputs": [
        {
          "name": "",
          "type": "uint8[]"
        }
      ],
      "payable": false,
      "stateMutability": "view",
      "type": "function"
    },
    {
      "constant": true,
      "inputs": [],
      "name": "getPlayers",
      "outputs": [
        {
          "name": "",
          "type": "address[]"
        }
      ],
      "payable": false,
      "stateMutability": "view",
      "type": "function"
    },
    {
      "constant": false,
      "inputs": [
        {
          "name": "playerAnswers",
          "type": "string"
        }
      ],
      "name": "answerQuestions",
      "outputs": [
        {
          "name": "",
          "type": "string"
        }
      ],
      "payable": false,
      "stateMutability": "nonpayable",
      "type": "function"
    }
  ],
  "bytecode": "0x60806040526080604051908101604052806040805190810160405280600181526020017f630000000000000000000000000000000000000000000000000000000000000081525081526020016040805190810160405280600181526020017f610000000000000000000000000000000000000000000000000000000000000081525081526020016040805190810160405280600181526020017f610000000000000000000000000000000000000000000000000000000000000081525081526020016040805190810160405280600181526020017f620000000000000000000000000000000000000000000000000000000000000081525081525060019060046200010c92919062000161565b503480156200011a57600080fd5b50336000806101000a81548173ffffffffffffffffffffffffffffffffffffffff021916908373ffffffffffffffffffffffffffffffffffffffff160217905550620002e7565b8260048101928215620001a8579160200282015b82811115620001a757825182908051906020019062000196929190620001bb565b509160200191906001019062000175565b5b509050620001b7919062000242565b5090565b828054600181600116156101000203166002900490600052602060002090601f016020900481019282601f10620001fe57805160ff19168380011785556200022f565b828001600101855582156200022f579182015b828111156200022e57825182559160200191906001019062000211565b5b5090506200023e919062000273565b5090565b6200027091905b808211156200026c57600081816200026291906200029b565b5060010162000249565b5090565b90565b6200029891905b80821115620002945760008160009055506001016200027a565b5090565b90565b50805460018160011615610100020316600290046000825580601f10620002c35750620002e4565b601f016020900490600052602060002090810190620002e3919062000273565b5b50565b610cd880620002f76000396000f300608060405260043610610083576000357c0100000000000000000000000000000000000000000000000000000000900463ffffffff1680631ef42a75146100885780633d65449b1461016a57806377a49821146101d65780638b5b9ccc146102665780638da5cb5b146102d2578063987f73f414610329578063f71d96cb14610370575b600080fd5b34801561009457600080fd5b506100ef600480360381019080803590602001908201803590602001908080601f01602080910402602001604051908101604052809392919081815260200183838082843782019150505050505091929192905050506103dd565b6040518080602001828103825283818151815260200191508051906020019080838360005b8381101561012f578082015181840152602081019050610114565b50505050905090810190601f16801561015c5780820380516001836020036101000a031916815260200191505b509250505060405180910390f35b34801561017657600080fd5b5061017f610762565b6040518080602001828103825283818151815260200191508051906020019060200280838360005b838110156101c25780820151818401526020810190506101a7565b505050509050019250505060405180910390f35b3480156101e257600080fd5b506101eb6107e0565b6040518080602001828103825283818151815260200191508051906020019080838360005b8381101561022b578082015181840152602081019050610210565b50505050905090810190601f1680156102585780820380516001836020036101000a031916815260200191505b509250505060405180910390f35b34801561027257600080fd5b5061027b61087e565b6040518080602001828103825283818151815260200191508051906020019060200280838360005b838110156102be5780820151818401526020810190506102a3565b505050509050019250505060405180910390f35b3480156102de57600080fd5b506102e761090c565b604051808273ffffffffffffffffffffffffffffffffffffffff1673ffffffffffffffffffffffffffffffffffffffff16815260200191505060405180910390f35b34801561033557600080fd5b5061035460048036038101908080359060200190929190505050610931565b604051808260ff1660ff16815260200191505060405180910390f35b34801561037c57600080fd5b5061039b60048036038101908080359060200190929190505050610964565b604051808273ffffffffffffffffffffffffffffffffffffffff1673ffffffffffffffffffffffffffffffffffffffff16815260200191505060405180910390f35b606060006103e9610c92565b6103f1610c92565b606060006103fe876109a2565b935061043e6040805190810160405280600181526020017f2e000000000000000000000000000000000000000000000000000000000000008152506109a2565b9250600161045584866109d090919063ffffffff16565b0160405190808252806020026020018201604052801561048957816020015b60608152602001906001900390816104745790505b509150600090505b81518110156106a6576104b56104b08486610a4790919063ffffffff16565b610a61565b82828151811015156104c357fe5b9060200190602002018190525073__StringUtils___________________________6346bdca9a83838151811015156104f857fe5b9060200190602002015160018460048110151561051157fe5b016040518363ffffffff167c0100000000000000000000000000000000000000000000000000000000028152600401808060200180602001838103835285818151815260200191508051906020019080838360005b83811015610581578082015181840152602081019050610566565b50505050905090810190601f1680156105ae5780820380516001836020036101000a031916815260200191505b508381038252848181546001816001161561010002031660029004815260200191508054600181600116156101000203166002900480156106305780601f1061060557610100808354040283529160200191610630565b820191906000526020600020905b81548152906001019060200180831161061357829003601f168201915b505094505050505060206040518083038186803b15801561065057600080fd5b505af4158015610664573d6000803e3d6000fd5b505050506040513d602081101561067a57600080fd5b8101908080519060200190929190505050156106995784806001019550505b8080600101915050610491565b60053390806001815401808255809150509060018203906000526020600020016000909192909190916101000a81548173ffffffffffffffffffffffffffffffffffffffff021916908373ffffffffffffffffffffffffffffffffffffffff1602179055505060066004908060018154018082558091505090600182039060005260206000209060209182820401919006909192909190916101000a81548160ff021916908360ff160217905550508695505050505050919050565b606060068054806020026020016040519081016040528092919081815260200182805480156107d657602002820191906000526020600020906000905b82829054906101000a900460ff1660ff168152602001906001019060208260000104928301926001038202915080841161079f5790505b5050505050905090565b60078054600181600116156101000203166002900480601f0160208091040260200160405190810160405280929190818152602001828054600181600116156101000203166002900480156108765780601f1061084b57610100808354040283529160200191610876565b820191906000526020600020905b81548152906001019060200180831161085957829003601f168201915b505050505081565b6060600580548060200260200160405190810160405280929190818152602001828054801561090257602002820191906000526020600020905b8160009054906101000a900473ffffffffffffffffffffffffffffffffffffffff1673ffffffffffffffffffffffffffffffffffffffff16815260200190600101908083116108b8575b5050505050905090565b6000809054906101000a900473ffffffffffffffffffffffffffffffffffffffff1681565b60068181548110151561094057fe5b9060005260206000209060209182820401919006915054906101000a900460ff1681565b60058181548110151561097357fe5b906000526020600020016000915054906101000a900473ffffffffffffffffffffffffffffffffffffffff1681565b6109aa610c92565b600060208301905060408051908101604052808451815260200182815250915050919050565b60008082600001516109f48560000151866020015186600001518760200151610ac3565b0190505b836000015184602001510181111515610a405781806001019250508260000151610a38856020015183038660000151038386600001518760200151610ac3565b0190506109f8565b5092915050565b610a4f610c92565b610a5a838383610ba9565b5092915050565b606080600083600001516040519080825280601f01601f191660200182016040528015610a9d5781602001602082028038833980820191505090505b509150602082019050610ab98185602001518660000151610c47565b8192505050919050565b60008060008060008060008060008b97508c8b111515610b935760208b111515610b4d5760018b60200360080260020a03196001029550858a511694508a8d8d010393508588511692505b84600019168360001916141515610b45578388101515610b32578c8c019850610b99565b8780600101985050858851169250610b0e565b879850610b99565b8a8a209150600096505b8a8d0387111515610b92578a88209050806000191682600019161415610b7f57879850610b99565b6001880197508680600101975050610b57565b5b8c8c0198505b5050505050505050949350505050565b610bb1610c92565b6000610bcf8560000151866020015186600001518760200151610ac3565b90508460200151836020018181525050846020015181038360000181815250508460000151856020015101811415610c11576000856000018181525050610c3c565b8360000151836000015101856000018181510391508181525050836000015181018560200181815250505b829150509392505050565b60005b602082101515610c6f5782518452602084019350602083019250602082039150610c4a565b6001826020036101000a0390508019835116818551168181178652505050505050565b6040805190810160405280600081526020016000815250905600a165627a7a723058208ace40899c0b34f6fa3b88a074d287ffc215c10fa2847c26dbdccfb7f771de090029",
  "source": "// pragma solidity >=0.4.21 <0.7.0;\npragma solidity ^0.4.14;\nimport \"./strings.sol\";\nimport \"./stringUtils.sol\";\ncontract Quiz {\n    using strings for *;\n    address public owner;\n    string[4] rightAnswers = [\"c\", \"a\", \"a\", \"b\"];\n    address[] public players;\n    uint8[] public playerHits;\n    string public questions;\n    constructor() public {\n        owner = msg.sender;\n    }\n    function getPlayerHits() public view returns (uint8[] memory) {\n        return playerHits;\n    }\n    function getPlayers() public view returns (address[] memory) {\n        return players;\n    }\n    function answerQuestions (string playerAnswers) public returns (string memory) {\n        uint hits;\n        var s = playerAnswers.toSlice();\n        var delim = \".\".toSlice();\n        var parts = new string[](s.count(delim) + 1);\n        for (uint i = 0; i < parts.length; i++) {\n            parts[i] = s.split(delim).toString();\n            // if (parts[i] == rightAnswers[i]) {\n            if (StringUtils.equal(parts[i], rightAnswers[i])) {\n                hits++;\n            }\n        }\n        players.push(msg.sender);\n        playerHits.push(4);\n        // players[players.length] = msg.sender;\n        // hits[index] = 0;\n        return playerAnswers;\n    }\n}",
  "sourcePath": "/home/dulce/dev/js/app2dapp/contracts/Quiz.sol",
  "compiler": {
    "name": "solc",
    "version": "0.4.26+commit.4563c3fc.Emscripten.clang"
  },
  "schemaVersion": "3.2.0",
  "updatedAt": "2020-06-16T05:19:24.177Z",
  "devdoc": {
    "methods": {}
  },
  "userdoc": {
    "methods": {}
  }
}