{
  "contractName": "Quiz",
  "abi": [
    {
      "constant": true,
      "inputs": [],
      "name": "owner",
      "outputs": [
        {
          "name": "",
          "type": "address"
        }
      ],
      "payable": false,
      "stateMutability": "view",
      "type": "function"
    },
    {
      "constant": true,
      "inputs": [
        {
          "name": "",
          "type": "uint256"
        }
      ],
      "name": "playerHits",
      "outputs": [
        {
          "name": "",
          "type": "uint8"
        }
      ],
      "payable": false,
      "stateMutability": "view",
      "type": "function"
    },
    {
      "constant": true,
      "inputs": [
        {
          "name": "",
          "type": "uint256"
        }
      ],
      "name": "players",
      "outputs": [
        {
          "name": "",
          "type": "address"
        }
      ],
      "payable": false,
      "stateMutability": "view",
      "type": "function"
    },
    {
      "inputs": [],
      "payable": false,
      "stateMutability": "nonpayable",
      "type": "constructor"
    },
    {
      "anonymous": false,
      "inputs": [
        {
          "indexed": false,
          "name": "hitsCounter",
          "type": "uint8"
        }
      ],
      "name": "AnswerEvent",
      "type": "event"
    },
    {
      "constant": true,
      "inputs": [],
      "name": "getPlayerHits",
      "outputs": [
        {
          "name": "",
          "type": "uint8[]"
        }
      ],
      "payable": false,
      "stateMutability": "view",
      "type": "function"
    },
    {
      "constant": true,
      "inputs": [],
      "name": "getPlayers",
      "outputs": [
        {
          "name": "",
          "type": "address[]"
        }
      ],
      "payable": false,
      "stateMutability": "view",
      "type": "function"
    },
    {
      "constant": false,
      "inputs": [
        {
          "name": "playerAnswers",
          "type": "uint8[]"
        }
      ],
      "name": "answerQuestions",
      "outputs": [
        {
          "name": "",
          "type": "uint8"
        }
      ],
      "payable": false,
      "stateMutability": "nonpayable",
      "type": "function"
    }
  ],
  "bytecode": "0x6080604052608060405190810160405280600360ff168152602001600160ff168152602001600160ff168152602001600260ff168152506001906004610046929190610099565b5034801561005357600080fd5b50336000806101000a81548173ffffffffffffffffffffffffffffffffffffffff021916908373ffffffffffffffffffffffffffffffffffffffff160217905550610163565b826004601f016020900481019282156101225791602002820160005b838211156100f357835183826101000a81548160ff021916908360ff16021790555092602001926001016020816000010492830192600103026100b5565b80156101205782816101000a81549060ff02191690556001016020816000010492830192600103026100f3565b505b50905061012f9190610133565b5090565b61016091905b8082111561015c57600081816101000a81549060ff021916905550600101610139565b5090565b90565b610614806101726000396000f300608060405260043610610078576000357c0100000000000000000000000000000000000000000000000000000000900463ffffffff16806329072a541461007d5780633d65449b146100fd5780638b5b9ccc146101695780638da5cb5b146101d5578063987f73f41461022c578063f71d96cb14610273575b600080fd5b34801561008957600080fd5b506100e1600480360381019080803590602001908201803590602001908080602002602001604051908101604052809392919081815260200183836020028082843782019150505050505091929192905050506102e0565b604051808260ff1660ff16815260200191505060405180910390f35b34801561010957600080fd5b50610112610446565b6040518080602001828103825283818151815260200191508051906020019060200280838360005b8381101561015557808201518184015260208101905061013a565b505050509050019250505060405180910390f35b34801561017557600080fd5b5061017e6104c4565b6040518080602001828103825283818151815260200191508051906020019060200280838360005b838110156101c15780820151818401526020810190506101a6565b505050509050019250505060405180910390f35b3480156101e157600080fd5b506101ea610552565b604051808273ffffffffffffffffffffffffffffffffffffffff1673ffffffffffffffffffffffffffffffffffffffff16815260200191505060405180910390f35b34801561023857600080fd5b5061025760048036038101908080359060200190929190505050610577565b604051808260ff1660ff16815260200191505060405180910390f35b34801561027f57600080fd5b5061029e600480360381019080803590602001909291905050506105aa565b604051808273ffffffffffffffffffffffffffffffffffffffff1673ffffffffffffffffffffffffffffffffffffffff16815260200191505060405180910390f35b60008060008090505b83518110156103515760018160048110151561030157fe5b602091828204019190069054906101000a900460ff1660ff16848281518110151561032857fe5b9060200190602002015160ff1614156103445781806001019250505b80806001019150506102e9565b60023390806001815401808255809150509060018203906000526020600020016000909192909190916101000a81548173ffffffffffffffffffffffffffffffffffffffff021916908373ffffffffffffffffffffffffffffffffffffffff16021790555050600382908060018154018082558091505090600182039060005260206000209060209182820401919006909192909190916101000a81548160ff021916908360ff160217905550507fdfb8db539bcaee70bb08a72b6559d1526504fdfc16cb838d6d197b9a482f5aa682604051808260ff1660ff16815260200191505060405180910390a18192505050919050565b606060038054806020026020016040519081016040528092919081815260200182805480156104ba57602002820191906000526020600020906000905b82829054906101000a900460ff1660ff16815260200190600101906020826000010492830192600103820291508084116104835790505b5050505050905090565b6060600280548060200260200160405190810160405280929190818152602001828054801561054857602002820191906000526020600020905b8160009054906101000a900473ffffffffffffffffffffffffffffffffffffffff1673ffffffffffffffffffffffffffffffffffffffff16815260200190600101908083116104fe575b5050505050905090565b6000809054906101000a900473ffffffffffffffffffffffffffffffffffffffff1681565b60038181548110151561058657fe5b9060005260206000209060209182820401919006915054906101000a900460ff1681565b6002818154811015156105b957fe5b906000526020600020016000915054906101000a900473ffffffffffffffffffffffffffffffffffffffff16815600a165627a7a72305820301d9ed0b9ef4163beffd5eb7676659c37d36eb69ab7a0113306fef8bc11b1670029",
  "source": "pragma solidity ^0.4.14;\ncontract Quiz {\n    address public owner;\n    uint8[4] rightAnswers = [3, 1, 1, 2];\n    address[] public players;\n    uint8[] public playerHits;\n\n    event AnswerEvent(uint8 hitsCounter);\n\n    constructor() public {\n        owner = msg.sender;\n    }\n\n    function getPlayerHits() public view returns (uint8[] memory) {\n        return playerHits;\n    }\n\n    function getPlayers() public view returns (address[] memory) {\n        return players;\n    }\n\n    function answerQuestions (uint8[] playerAnswers) public returns (uint8) {\n        uint8 hits;\n        for (uint i = 0; i < playerAnswers.length; i++) {\n            if (playerAnswers[i] == rightAnswers[i]) {\n                hits++;\n            }\n        }\n        players.push(msg.sender);\n        playerHits.push(hits);\n        emit AnswerEvent(hits);\n        return hits;\n    }\n}",
  "sourcePath": "/home/dulce/dev/js/app2dapp/contracts/Quiz.sol",
  "compiler": {
    "name": "solc",
    "version": "0.4.26+commit.4563c3fc.Emscripten.clang"
  },
  "schemaVersion": "3.2.0",
  "updatedAt": "2020-06-17T02:37:26.404Z",
  "networkType": "ethereum",
  "devdoc": {
    "methods": {}
  },
  "userdoc": {
    "methods": {}
  }
}